{
  "_format": "hh-sol-artifact-1",
  "contractName": "BookRecPortal",
  "sourceName": "contracts/BookRecPortal.sol",
  "abi": [
    {
      "inputs": [],
      "stateMutability": "payable",
      "type": "constructor"
    },
    {
      "anonymous": false,
      "inputs": [
        {
          "indexed": true,
          "internalType": "address",
          "name": "from",
          "type": "address"
        },
        {
          "indexed": false,
          "internalType": "uint256",
          "name": "timestamp",
          "type": "uint256"
        },
        {
          "indexed": false,
          "internalType": "string",
          "name": "recommendation",
          "type": "string"
        }
      ],
      "name": "NewRec",
      "type": "event"
    },
    {
      "inputs": [],
      "name": "getAllRecs",
      "outputs": [
        {
          "components": [
            {
              "internalType": "address",
              "name": "recommender",
              "type": "address"
            },
            {
              "internalType": "string",
              "name": "recommendation",
              "type": "string"
            },
            {
              "internalType": "uint256",
              "name": "timestamp",
              "type": "uint256"
            }
          ],
          "internalType": "struct BookRecPortal.BookRec[]",
          "name": "",
          "type": "tuple[]"
        }
      ],
      "stateMutability": "view",
      "type": "function"
    },
    {
      "inputs": [],
      "name": "getTotalNumRecs",
      "outputs": [
        {
          "internalType": "uint256",
          "name": "",
          "type": "uint256"
        }
      ],
      "stateMutability": "view",
      "type": "function"
    },
    {
      "inputs": [
        {
          "internalType": "address",
          "name": "",
          "type": "address"
        }
      ],
      "name": "lastSubmit",
      "outputs": [
        {
          "internalType": "uint256",
          "name": "",
          "type": "uint256"
        }
      ],
      "stateMutability": "view",
      "type": "function"
    },
    {
      "inputs": [
        {
          "internalType": "string",
          "name": "_recommendation",
          "type": "string"
        }
      ],
      "name": "recommend",
      "outputs": [],
      "stateMutability": "nonpayable",
      "type": "function"
    }
  ],
  "bytecode": "0x60806040526200004f6040518060400160405280601581526020017f436f6e747261637420636f6e73747275637465642100000000000000000000008152506200007760201b6200069a1760201c565b606444426200005f9190620001c4565b6200006b919062000261565b60018190555062000308565b62000117816040516024016200008e919062000184565b6040516020818303038152906040527f41304fac000000000000000000000000000000000000000000000000000000007bffffffffffffffffffffffffffffffffffffffffffffffffffffffff19166020820180517bffffffffffffffffffffffffffffffffffffffffffffffffffffffff83818316178352505050506200011a60201b60201c565b50565b60008151905060006a636f6e736f6c652e6c6f679050602083016000808483855afa5050505050565b60006200015082620001a8565b6200015c8185620001b3565b93506200016e8185602086016200022b565b6200017981620002f7565b840191505092915050565b60006020820190508181036000830152620001a0818462000143565b905092915050565b600081519050919050565b600082825260208201905092915050565b6000620001d18262000221565b9150620001de8362000221565b9250827fffffffffffffffffffffffffffffffffffffffffffffffffffffffffffffffff0382111562000216576200021562000299565b5b828201905092915050565b6000819050919050565b60005b838110156200024b5780820151818401526020810190506200022e565b838111156200025b576000848401525b50505050565b60006200026e8262000221565b91506200027b8362000221565b9250826200028e576200028d620002c8565b5b828206905092915050565b7f4e487b7100000000000000000000000000000000000000000000000000000000600052601160045260246000fd5b7f4e487b7100000000000000000000000000000000000000000000000000000000600052601260045260246000fd5b6000601f19601f8301169050919050565b6112b280620003186000396000f3fe608060405234801561001057600080fd5b506004361061004c5760003560e01c80637dfdf5141461005157806399a31c1a1461006d578063bb3f7c971461009d578063dbb5de58146100bb575b600080fd5b61006b60048036038101906100669190610a7c565b6100d9565b005b61008760048036038101906100829190610a53565b6104e6565b6040516100949190610e2e565b60405180910390f35b6100a56104fe565b6040516100b29190610e2e565b60405180910390f35b6100c3610549565b6040516100d09190610ce5565b60405180910390f35b42610384600360003373ffffffffffffffffffffffffffffffffffffffff1673ffffffffffffffffffffffffffffffffffffffff168152602001908152602001600020546101279190610f40565b10610167576040517f08c379a000000000000000000000000000000000000000000000000000000000815260040161015e90610dee565b60405180910390fd5b42600360003373ffffffffffffffffffffffffffffffffffffffff1673ffffffffffffffffffffffffffffffffffffffff1681526020019081526020016000208190555060016000808282546101bd9190610f40565b925050819055506102046040518060400160405280601c81526020017f25732073656e742061207265636f6d6d656e646174696f6e3a202573000000008152503383610733565b600260405180606001604052803373ffffffffffffffffffffffffffffffffffffffff16815260200183815260200142815250908060018154018082558091505060019003906000526020600020906003020160009091909190915060008201518160000160006101000a81548173ffffffffffffffffffffffffffffffffffffffff021916908373ffffffffffffffffffffffffffffffffffffffff16021790555060208201518160010190805190602001906102c3929190610933565b50604082015181600201555050606460015442446102e19190610f40565b6102eb9190610f40565b6102f59190611077565b60018190555061033c6040518060400160405280601681526020017f52616e646f6d20232067656e6572617465643a202564000000000000000000008152506001546107d2565b601b600154101580156103525750604d60015411155b156104935760006551b32d3d7c0090506103a16040518060400160405280600781526020017f257320776f6e21000000000000000000000000000000000000000000000000008152503361086e565b478111156103e4576040517f08c379a00000000000000000000000000000000000000000000000000000000081526004016103db90610dce565b60405180910390fd5b60003373ffffffffffffffffffffffffffffffffffffffff168260405161040a90610cd0565b60006040518083038185875af1925050503d8060008114610447576040519150601f19603f3d011682016040523d82523d6000602084013e61044c565b606091505b5050905080610490576040517f08c379a000000000000000000000000000000000000000000000000000000000815260040161048790610e0e565b60405180910390fd5b50505b3373ffffffffffffffffffffffffffffffffffffffff167f47568a5d32a8dc5a594e80266d484f46073e4ea3ff98158909880613dcc9581242836040516104db929190610e49565b60405180910390a250565b60036020528060005260406000206000915090505481565b60006105416040518060400160405280601b81526020017f5765206861766520256420746f74616c20626f6f6b20726563732100000000008152506000546107d2565b600054905090565b60606002805480602002602001604051908101604052809291908181526020016000905b8282101561069157838290600052602060002090600302016040518060600160405290816000820160009054906101000a900473ffffffffffffffffffffffffffffffffffffffff1673ffffffffffffffffffffffffffffffffffffffff1673ffffffffffffffffffffffffffffffffffffffff1681526020016001820180546105f690611014565b80601f016020809104026020016040519081016040528092919081815260200182805461062290611014565b801561066f5780601f106106445761010080835404028352916020019161066f565b820191906000526020600020905b81548152906001019060200180831161065257829003601f168201915b505050505081526020016002820154815250508152602001906001019061056d565b50505050905090565b610730816040516024016106ae9190610d07565b6040516020818303038152906040527f41304fac000000000000000000000000000000000000000000000000000000007bffffffffffffffffffffffffffffffffffffffffffffffffffffffff19166020820180517bffffffffffffffffffffffffffffffffffffffffffffffffffffffff838183161783525050505061090a565b50565b6107cd83838360405160240161074b93929190610d59565b6040516020818303038152906040527fe0e9ad4f000000000000000000000000000000000000000000000000000000007bffffffffffffffffffffffffffffffffffffffffffffffffffffffff19166020820180517bffffffffffffffffffffffffffffffffffffffffffffffffffffffff838183161783525050505061090a565b505050565b61086a82826040516024016107e8929190610d9e565b6040516020818303038152906040527f9710a9d0000000000000000000000000000000000000000000000000000000007bffffffffffffffffffffffffffffffffffffffffffffffffffffffff19166020820180517bffffffffffffffffffffffffffffffffffffffffffffffffffffffff838183161783525050505061090a565b5050565b6109068282604051602401610884929190610d29565b6040516020818303038152906040527f319af333000000000000000000000000000000000000000000000000000000007bffffffffffffffffffffffffffffffffffffffffffffffffffffffff19166020820180517bffffffffffffffffffffffffffffffffffffffffffffffffffffffff838183161783525050505061090a565b5050565b60008151905060006a636f6e736f6c652e6c6f679050602083016000808483855afa5050505050565b82805461093f90611014565b90600052602060002090601f01602090048101928261096157600085556109a8565b82601f1061097a57805160ff19168380011785556109a8565b828001600101855582156109a8579182015b828111156109a757825182559160200191906001019061098c565b5b5090506109b591906109b9565b5090565b5b808211156109d25760008160009055506001016109ba565b5090565b60006109e96109e484610e9e565b610e79565b905082815260208101848484011115610a0157600080fd5b610a0c848285610fd2565b509392505050565b600081359050610a2381611265565b92915050565b600082601f830112610a3a57600080fd5b8135610a4a8482602086016109d6565b91505092915050565b600060208284031215610a6557600080fd5b6000610a7384828501610a14565b91505092915050565b600060208284031215610a8e57600080fd5b600082013567ffffffffffffffff811115610aa857600080fd5b610ab484828501610a29565b91505092915050565b6000610ac98383610c62565b905092915050565b610ada81610f96565b82525050565b610ae981610f96565b82525050565b6000610afa82610edf565b610b048185610f02565b935083602082028501610b1685610ecf565b8060005b85811015610b525784840389528151610b338582610abd565b9450610b3e83610ef5565b925060208a01995050600181019050610b1a565b50829750879550505050505092915050565b6000610b6f82610eea565b610b798185610f1e565b9350610b89818560208601610fe1565b610b9281611164565b840191505092915050565b6000610ba882610eea565b610bb28185610f2f565b9350610bc2818560208601610fe1565b610bcb81611164565b840191505092915050565b6000610be3603483610f2f565b9150610bee82611175565b604082019050919050565b6000610c06603983610f2f565b9150610c11826111c4565b604082019050919050565b6000610c29602783610f2f565b9150610c3482611213565b604082019050919050565b6000610c4c600083610f13565b9150610c5782611262565b600082019050919050565b6000606083016000830151610c7a6000860182610ad1565b5060208301518482036020860152610c928282610b64565b9150506040830151610ca76040860182610cb2565b508091505092915050565b610cbb81610fc8565b82525050565b610cca81610fc8565b82525050565b6000610cdb82610c3f565b9150819050919050565b60006020820190508181036000830152610cff8184610aef565b905092915050565b60006020820190508181036000830152610d218184610b9d565b905092915050565b60006040820190508181036000830152610d438185610b9d565b9050610d526020830184610ae0565b9392505050565b60006060820190508181036000830152610d738186610b9d565b9050610d826020830185610ae0565b8181036040830152610d948184610b9d565b9050949350505050565b60006040820190508181036000830152610db88185610b9d565b9050610dc76020830184610cc1565b9392505050565b60006020820190508181036000830152610de781610bd6565b9050919050565b60006020820190508181036000830152610e0781610bf9565b9050919050565b60006020820190508181036000830152610e2781610c1c565b9050919050565b6000602082019050610e436000830184610cc1565b92915050565b6000604082019050610e5e6000830185610cc1565b8181036020830152610e708184610b9d565b90509392505050565b6000610e83610e94565b9050610e8f8282611046565b919050565b6000604051905090565b600067ffffffffffffffff821115610eb957610eb8611135565b5b610ec282611164565b9050602081019050919050565b6000819050602082019050919050565b600081519050919050565b600081519050919050565b6000602082019050919050565b600082825260208201905092915050565b600081905092915050565b600082825260208201905092915050565b600082825260208201905092915050565b6000610f4b82610fc8565b9150610f5683610fc8565b9250827fffffffffffffffffffffffffffffffffffffffffffffffffffffffffffffffff03821115610f8b57610f8a6110a8565b5b828201905092915050565b6000610fa182610fa8565b9050919050565b600073ffffffffffffffffffffffffffffffffffffffff82169050919050565b6000819050919050565b82818337600083830152505050565b60005b83811015610fff578082015181840152602081019050610fe4565b8381111561100e576000848401525b50505050565b6000600282049050600182168061102c57607f821691505b602082108114156110405761103f611106565b5b50919050565b61104f82611164565b810181811067ffffffffffffffff8211171561106e5761106d611135565b5b80604052505050565b600061108282610fc8565b915061108d83610fc8565b92508261109d5761109c6110d7565b5b828206905092915050565b7f4e487b7100000000000000000000000000000000000000000000000000000000600052601160045260246000fd5b7f4e487b7100000000000000000000000000000000000000000000000000000000600052601260045260246000fd5b7f4e487b7100000000000000000000000000000000000000000000000000000000600052602260045260246000fd5b7f4e487b7100000000000000000000000000000000000000000000000000000000600052604160045260246000fd5b6000601f19601f8301169050919050565b7f547279696e6720746f207769746864726177206d6f7265206d6f6e657920746860008201527f616e2074686520636f6e7472616374206861732e000000000000000000000000602082015250565b7f57616974203135206d696e75746573206265666f7265207375626d697474696e60008201527f6720616e6f74686572207265636f6d6d656e646174696f6e2e00000000000000602082015250565b7f4661696c656420746f207769746864726177206d6f6e65792066726f6d20636f60008201527f6e74726163742e00000000000000000000000000000000000000000000000000602082015250565b50565b61126e81610f96565b811461127957600080fd5b5056fea26469706673582212200f6f71f7282ea54ff847c01ae8076f4b7b22f01154b6ee079df95285f17af00764736f6c63430008040033",
  "linkReferences": {},
  "deployedLinkReferences": {}
}